{
  "_format": "hh-sol-artifact-1",
  "contractName": "medicalCenter",
  "sourceName": "contracts/medicalCenter.sol",
  "abi": [
    {
      "anonymous": false,
      "inputs": [
        {
          "indexed": false,
          "internalType": "address",
          "name": "specialistDirection",
          "type": "address"
        },
        {
          "indexed": false,
          "internalType": "address",
          "name": "patientDirection",
          "type": "address"
        },
        {
          "indexed": false,
          "internalType": "bytes32",
          "name": "IdMedicalAttention",
          "type": "bytes32"
        },
        {
          "indexed": false,
          "internalType": "string",
          "name": "date",
          "type": "string"
        },
        {
          "indexed": false,
          "internalType": "string",
          "name": "Address",
          "type": "string"
        },
        {
          "indexed": false,
          "internalType": "string",
          "name": "typeOfAttention",
          "type": "string"
        },
        {
          "indexed": false,
          "internalType": "string",
          "name": "diagnostic",
          "type": "string"
        },
        {
          "indexed": false,
          "internalType": "string",
          "name": "observations",
          "type": "string"
        },
        {
          "indexed": false,
          "internalType": "bool",
          "name": "patientSignature",
          "type": "bool"
        }
      ],
      "name": "newMedicalCare",
      "type": "event"
    },
    {
      "anonymous": false,
      "inputs": [
        {
          "indexed": false,
          "internalType": "string",
          "name": "name",
          "type": "string"
        },
        {
          "indexed": false,
          "internalType": "address",
          "name": "Address",
          "type": "address"
        }
      ],
      "name": "newPatient",
      "type": "event"
    },
    {
      "anonymous": false,
      "inputs": [
        {
          "indexed": false,
          "internalType": "bytes32",
          "name": "Id",
          "type": "bytes32"
        }
      ],
      "name": "newSignature",
      "type": "event"
    },
    {
      "anonymous": false,
      "inputs": [
        {
          "indexed": false,
          "internalType": "string",
          "name": "name",
          "type": "string"
        },
        {
          "indexed": false,
          "internalType": "string",
          "name": "specialty",
          "type": "string"
        },
        {
          "indexed": false,
          "internalType": "uint256",
          "name": "pacientesSeen",
          "type": "uint256"
        },
        {
          "indexed": false,
          "internalType": "address",
          "name": "Address",
          "type": "address"
        },
        {
          "indexed": false,
          "internalType": "string",
          "name": "contact",
          "type": "string"
        }
      ],
      "name": "newSpecialist",
      "type": "event"
    },
    {
      "inputs": [
        {
          "internalType": "address",
          "name": "_patientDirection",
          "type": "address"
        },
        {
          "internalType": "string",
          "name": "_date",
          "type": "string"
        },
        {
          "internalType": "string",
          "name": "_Address",
          "type": "string"
        },
        {
          "internalType": "string",
          "name": "_typeOfAttention",
          "type": "string"
        },
        {
          "internalType": "string",
          "name": "_diagnostic",
          "type": "string"
        },
        {
          "internalType": "string",
          "name": "_observations",
          "type": "string"
        }
      ],
      "name": "medicalRecord",
      "outputs": [],
      "stateMutability": "nonpayable",
      "type": "function"
    },
    {
      "inputs": [
        {
          "internalType": "bytes32",
          "name": "_ID",
          "type": "bytes32"
        }
      ],
      "name": "patientToSignature",
      "outputs": [],
      "stateMutability": "nonpayable",
      "type": "function"
    },
    {
      "inputs": [
        {
          "internalType": "string",
          "name": "_name",
          "type": "string"
        }
      ],
      "name": "registerPatient",
      "outputs": [],
      "stateMutability": "nonpayable",
      "type": "function"
    },
    {
      "inputs": [
        {
          "internalType": "string",
          "name": "_name",
          "type": "string"
        },
        {
          "internalType": "string",
          "name": "_specialty",
          "type": "string"
        },
        {
          "internalType": "string",
          "name": "_contact",
          "type": "string"
        }
      ],
      "name": "registerSpecialist",
      "outputs": [],
      "stateMutability": "nonpayable",
      "type": "function"
    },
    {
      "inputs": [
        {
          "internalType": "address",
          "name": "_id",
          "type": "address"
        }
      ],
      "name": "returnCare",
      "outputs": [
        {
          "internalType": "bytes32[]",
          "name": "",
          "type": "bytes32[]"
        }
      ],
      "stateMutability": "view",
      "type": "function"
    },
    {
      "inputs": [
        {
          "internalType": "bytes32",
          "name": "",
          "type": "bytes32"
        }
      ],
      "name": "seeMedicalAttention",
      "outputs": [
        {
          "internalType": "address",
          "name": "specialistDirection",
          "type": "address"
        },
        {
          "internalType": "address",
          "name": "patientDirection",
          "type": "address"
        },
        {
          "internalType": "bytes32",
          "name": "IdMedicalAttention",
          "type": "bytes32"
        },
        {
          "internalType": "string",
          "name": "date",
          "type": "string"
        },
        {
          "internalType": "string",
          "name": "Address",
          "type": "string"
        },
        {
          "internalType": "string",
          "name": "typeOfAttention",
          "type": "string"
        },
        {
          "internalType": "string",
          "name": "diagnostic",
          "type": "string"
        },
        {
          "internalType": "string",
          "name": "observations",
          "type": "string"
        },
        {
          "internalType": "bool",
          "name": "patientSignature",
          "type": "bool"
        }
      ],
      "stateMutability": "view",
      "type": "function"
    },
    {
      "inputs": [
        {
          "internalType": "address",
          "name": "",
          "type": "address"
        }
      ],
      "name": "seePatient",
      "outputs": [
        {
          "internalType": "string",
          "name": "name",
          "type": "string"
        },
        {
          "internalType": "address",
          "name": "Address",
          "type": "address"
        }
      ],
      "stateMutability": "view",
      "type": "function"
    },
    {
      "inputs": [
        {
          "internalType": "address",
          "name": "",
          "type": "address"
        }
      ],
      "name": "seeSpecialist",
      "outputs": [
        {
          "internalType": "string",
          "name": "name",
          "type": "string"
        },
        {
          "internalType": "string",
          "name": "specialty",
          "type": "string"
        },
        {
          "internalType": "uint256",
          "name": "pacientesSeen",
          "type": "uint256"
        },
        {
          "internalType": "address",
          "name": "Address",
          "type": "address"
        },
        {
          "internalType": "string",
          "name": "contact",
          "type": "string"
        }
      ],
      "stateMutability": "view",
      "type": "function"
    }
  ],
  "bytecode": "0x608060405234801561001057600080fd5b50611c93806100206000396000f3fe608060405234801561001057600080fd5b50600436106100885760003560e01c80638f76114a1161005b5780638f76114a1461012e5780639a5347ca1461014a578063d891dec71461017a578063fe2b70bf1461019657610088565b8063083b47471461008d5780635c4c67b4146100be57806384e8e2e7146100da578063869c9eaf14610112575b600080fd5b6100a760048036038101906100a29190611076565b6101ca565b6040516100b5929190611142565b60405180910390f35b6100d860048036038101906100d391906112a7565b610296565b005b6100f460048036038101906100ef91906113f6565b610613565b6040516101099998979695949392919061144d565b60405180910390f35b61012c600480360381019061012791906114fd565b610956565b005b61014860048036038101906101439190611546565b610acf565b005b610164600480360381019061015f9190611076565b610c26565b60405161017191906116ab565b60405180910390f35b610194600480360381019061018f91906113f6565b610ccc565b005b6101b060048036038101906101ab9190611076565b610dac565b6040516101c19594939291906116e6565b60405180910390f35b60016020528060005260406000206000915090508060000180546101ed9061177d565b80601f01602080910402602001604051908101604052809291908181526020018280546102199061177d565b80156102665780601f1061023b57610100808354040283529160200191610266565b820191906000526020600020905b81548152906001019060200180831161024957829003601f168201915b5050505050908060010160009054906101000a900473ffffffffffffffffffffffffffffffffffffffff16905082565b600086848442336040516020016102b1959493929190611853565b6040516020818303038152906040528051906020012090506000600160008973ffffffffffffffffffffffffffffffffffffffff1673ffffffffffffffffffffffffffffffffffffffff168152602001908152602001600020905080600201829080600181540180825580915050600190039060005260206000200160009091909190915055600160008973ffffffffffffffffffffffffffffffffffffffff1673ffffffffffffffffffffffffffffffffffffffff168152602001908152602001600020905060008060003373ffffffffffffffffffffffffffffffffffffffff1673ffffffffffffffffffffffffffffffffffffffff16815260200190815260200160002090508060020160008154809291906103cf906118d9565b91905055506000803373ffffffffffffffffffffffffffffffffffffffff1673ffffffffffffffffffffffffffffffffffffffff16815260200190815260200160002090506040518061012001604052803373ffffffffffffffffffffffffffffffffffffffff1681526020018a73ffffffffffffffffffffffffffffffffffffffff168152602001848152602001898152602001888152602001878152602001868152602001858152602001600015158152506002600085815260200190815260200160002060008201518160000160006101000a81548173ffffffffffffffffffffffffffffffffffffffff021916908373ffffffffffffffffffffffffffffffffffffffff16021790555060208201518160010160006101000a81548173ffffffffffffffffffffffffffffffffffffffff021916908373ffffffffffffffffffffffffffffffffffffffff1602179055506040820151816002015560608201518160030190816105439190611acd565b5060808201518160040190816105599190611acd565b5060a082015181600501908161056f9190611acd565b5060c08201518160060190816105859190611acd565b5060e082015181600701908161059b9190611acd565b506101008201518160080160006101000a81548160ff0219169083151502179055509050507fe1b9b1a9042333fbc99c2b619bb7dc766bd028e731d14d6fa11a3627a1973440338a858b8b8b8b8b60006040516106009998979695949392919061144d565b60405180910390a1505050505050505050565b60026020528060005260406000206000915090508060000160009054906101000a900473ffffffffffffffffffffffffffffffffffffffff16908060010160009054906101000a900473ffffffffffffffffffffffffffffffffffffffff16908060020154908060030180546106889061177d565b80601f01602080910402602001604051908101604052809291908181526020018280546106b49061177d565b80156107015780601f106106d657610100808354040283529160200191610701565b820191906000526020600020905b8154815290600101906020018083116106e457829003601f168201915b5050505050908060040180546107169061177d565b80601f01602080910402602001604051908101604052809291908181526020018280546107429061177d565b801561078f5780601f106107645761010080835404028352916020019161078f565b820191906000526020600020905b81548152906001019060200180831161077257829003601f168201915b5050505050908060050180546107a49061177d565b80601f01602080910402602001604051908101604052809291908181526020018280546107d09061177d565b801561081d5780601f106107f25761010080835404028352916020019161081d565b820191906000526020600020905b81548152906001019060200180831161080057829003601f168201915b5050505050908060060180546108329061177d565b80601f016020809104026020016040519081016040528092919081815260200182805461085e9061177d565b80156108ab5780601f10610880576101008083540402835291602001916108ab565b820191906000526020600020905b81548152906001019060200180831161088e57829003601f168201915b5050505050908060070180546108c09061177d565b80601f01602080910402602001604051908101604052809291908181526020018280546108ec9061177d565b80156109395780601f1061090e57610100808354040283529160200191610939565b820191906000526020600020905b81548152906001019060200180831161091c57829003601f168201915b5050505050908060080160009054906101000a900460ff16905089565b60405180606001604052808281526020013373ffffffffffffffffffffffffffffffffffffffff16815260200160038054806020026020016040519081016040528092919081815260200182805480156109cf57602002820191906000526020600020905b8154815260200190600101908083116109bb575b5050505050815250600160003373ffffffffffffffffffffffffffffffffffffffff1673ffffffffffffffffffffffffffffffffffffffff1681526020019081526020016000206000820151816000019081610a2b9190611acd565b5060208201518160010160006101000a81548173ffffffffffffffffffffffffffffffffffffffff021916908373ffffffffffffffffffffffffffffffffffffffff1602179055506040820151816002019080519060200190610a8f929190610f9a565b509050507f2cc2297518d2e95f47e8d56a542b31d771111b8005cd026ebb7cd0d9107fbeec8133604051610ac4929190611142565b60405180910390a150565b6040518060a00160405280848152602001838152602001600081526020013373ffffffffffffffffffffffffffffffffffffffff168152602001828152506000803373ffffffffffffffffffffffffffffffffffffffff1673ffffffffffffffffffffffffffffffffffffffff1681526020019081526020016000206000820151816000019081610b609190611acd565b506020820151816001019081610b769190611acd565b506040820151816002015560608201518160030160006101000a81548173ffffffffffffffffffffffffffffffffffffffff021916908373ffffffffffffffffffffffffffffffffffffffff1602179055506080820151816004019081610bdd9190611acd565b509050507f36d9f763481d9b473a17b81a40ac5e3963af1fa29ca164b3b2057f3522fee912838360003385604051610c19959493929190611bda565b60405180910390a1505050565b60606000600160008473ffffffffffffffffffffffffffffffffffffffff1673ffffffffffffffffffffffffffffffffffffffff1681526020019081526020016000209050600081600201905080805480602002602001604051908101604052809291908181526020018280548015610cbe57602002820191906000526020600020905b815481526020019060010190808311610caa575b505050505092505050919050565b60006002600083815260200190815260200160002090503373ffffffffffffffffffffffffffffffffffffffff168160010160009054906101000a900473ffffffffffffffffffffffffffffffffffffffff1673ffffffffffffffffffffffffffffffffffffffff1614610d3f57600080fd5b60018160080160006101000a81548160ff0219169083151502179055506002600083815260200190815260200160002090507f5ab5f0f5f6fbf80a33a8f328cbb100aacc5e4558f85d00f41fb2c0c3333f314982604051610da09190611c42565b60405180910390a15050565b6000602052806000526040600020600091509050806000018054610dcf9061177d565b80601f0160208091040260200160405190810160405280929190818152602001828054610dfb9061177d565b8015610e485780601f10610e1d57610100808354040283529160200191610e48565b820191906000526020600020905b815481529060010190602001808311610e2b57829003601f168201915b505050505090806001018054610e5d9061177d565b80601f0160208091040260200160405190810160405280929190818152602001828054610e899061177d565b8015610ed65780601f10610eab57610100808354040283529160200191610ed6565b820191906000526020600020905b815481529060010190602001808311610eb957829003601f168201915b5050505050908060020154908060030160009054906101000a900473ffffffffffffffffffffffffffffffffffffffff1690806004018054610f179061177d565b80601f0160208091040260200160405190810160405280929190818152602001828054610f439061177d565b8015610f905780601f10610f6557610100808354040283529160200191610f90565b820191906000526020600020905b815481529060010190602001808311610f7357829003601f168201915b5050505050905085565b828054828255906000526020600020908101928215610fd6579160200282015b82811115610fd5578251825591602001919060010190610fba565b5b509050610fe39190610fe7565b5090565b5b80821115611000576000816000905550600101610fe8565b5090565b6000604051905090565b600080fd5b600080fd5b600073ffffffffffffffffffffffffffffffffffffffff82169050919050565b600061104382611018565b9050919050565b61105381611038565b811461105e57600080fd5b50565b6000813590506110708161104a565b92915050565b60006020828403121561108c5761108b61100e565b5b600061109a84828501611061565b91505092915050565b600081519050919050565b600082825260208201905092915050565b60005b838110156110dd5780820151818401526020810190506110c2565b60008484015250505050565b6000601f19601f8301169050919050565b6000611105826110a3565b61110f81856110ae565b935061111f8185602086016110bf565b611128816110e9565b840191505092915050565b61113c81611038565b82525050565b6000604082019050818103600083015261115c81856110fa565b905061116b6020830184611133565b9392505050565b600080fd5b600080fd5b7f4e487b7100000000000000000000000000000000000000000000000000000000600052604160045260246000fd5b6111b4826110e9565b810181811067ffffffffffffffff821117156111d3576111d261117c565b5b80604052505050565b60006111e6611004565b90506111f282826111ab565b919050565b600067ffffffffffffffff8211156112125761121161117c565b5b61121b826110e9565b9050602081019050919050565b82818337600083830152505050565b600061124a611245846111f7565b6111dc565b90508281526020810184848401111561126657611265611177565b5b611271848285611228565b509392505050565b600082601f83011261128e5761128d611172565b5b813561129e848260208601611237565b91505092915050565b60008060008060008060c087890312156112c4576112c361100e565b5b60006112d289828a01611061565b965050602087013567ffffffffffffffff8111156112f3576112f2611013565b5b6112ff89828a01611279565b955050604087013567ffffffffffffffff8111156113205761131f611013565b5b61132c89828a01611279565b945050606087013567ffffffffffffffff81111561134d5761134c611013565b5b61135989828a01611279565b935050608087013567ffffffffffffffff81111561137a57611379611013565b5b61138689828a01611279565b92505060a087013567ffffffffffffffff8111156113a7576113a6611013565b5b6113b389828a01611279565b9150509295509295509295565b6000819050919050565b6113d3816113c0565b81146113de57600080fd5b50565b6000813590506113f0816113ca565b92915050565b60006020828403121561140c5761140b61100e565b5b600061141a848285016113e1565b91505092915050565b61142c816113c0565b82525050565b60008115159050919050565b61144781611432565b82525050565b600061012082019050611463600083018c611133565b611470602083018b611133565b61147d604083018a611423565b818103606083015261148f81896110fa565b905081810360808301526114a381886110fa565b905081810360a08301526114b781876110fa565b905081810360c08301526114cb81866110fa565b905081810360e08301526114df81856110fa565b90506114ef61010083018461143e565b9a9950505050505050505050565b6000602082840312156115135761151261100e565b5b600082013567ffffffffffffffff81111561153157611530611013565b5b61153d84828501611279565b91505092915050565b60008060006060848603121561155f5761155e61100e565b5b600084013567ffffffffffffffff81111561157d5761157c611013565b5b61158986828701611279565b935050602084013567ffffffffffffffff8111156115aa576115a9611013565b5b6115b686828701611279565b925050604084013567ffffffffffffffff8111156115d7576115d6611013565b5b6115e386828701611279565b9150509250925092565b600081519050919050565b600082825260208201905092915050565b6000819050602082019050919050565b611622816113c0565b82525050565b60006116348383611619565b60208301905092915050565b6000602082019050919050565b6000611658826115ed565b61166281856115f8565b935061166d83611609565b8060005b8381101561169e5781516116858882611628565b975061169083611640565b925050600181019050611671565b5085935050505092915050565b600060208201905081810360008301526116c5818461164d565b905092915050565b6000819050919050565b6116e0816116cd565b82525050565b600060a082019050818103600083015261170081886110fa565b9050818103602083015261171481876110fa565b905061172360408301866116d7565b6117306060830185611133565b818103608083015261174281846110fa565b90509695505050505050565b7f4e487b7100000000000000000000000000000000000000000000000000000000600052602260045260246000fd5b6000600282049050600182168061179557607f821691505b6020821081036117a8576117a761174e565b5b50919050565b60008160601b9050919050565b60006117c6826117ae565b9050919050565b60006117d8826117bb565b9050919050565b6117f06117eb82611038565b6117cd565b82525050565b600081905092915050565b600061180c826110a3565b61181681856117f6565b93506118268185602086016110bf565b80840191505092915050565b6000819050919050565b61184d611848826116cd565b611832565b82525050565b600061185f82886117df565b60148201915061186f8287611801565b915061187b8286611801565b9150611887828561183c565b60208201915061189782846117df565b6014820191508190509695505050505050565b7f4e487b7100000000000000000000000000000000000000000000000000000000600052601160045260246000fd5b60006118e4826116cd565b91507fffffffffffffffffffffffffffffffffffffffffffffffffffffffffffffffff8203611916576119156118aa565b5b600182019050919050565b60008190508160005260206000209050919050565b60006020601f8301049050919050565b600082821b905092915050565b6000600883026119837fffffffffffffffffffffffffffffffffffffffffffffffffffffffffffffffff82611946565b61198d8683611946565b95508019841693508086168417925050509392505050565b6000819050919050565b60006119ca6119c56119c0846116cd565b6119a5565b6116cd565b9050919050565b6000819050919050565b6119e4836119af565b6119f86119f0826119d1565b848454611953565b825550505050565b600090565b611a0d611a00565b611a188184846119db565b505050565b5b81811015611a3c57611a31600082611a05565b600181019050611a1e565b5050565b601f821115611a8157611a5281611921565b611a5b84611936565b81016020851015611a6a578190505b611a7e611a7685611936565b830182611a1d565b50505b505050565b600082821c905092915050565b6000611aa460001984600802611a86565b1980831691505092915050565b6000611abd8383611a93565b9150826002028217905092915050565b611ad6826110a3565b67ffffffffffffffff811115611aef57611aee61117c565b5b611af9825461177d565b611b04828285611a40565b600060209050601f831160018114611b375760008415611b25578287015190505b611b2f8582611ab1565b865550611b97565b601f198416611b4586611921565b60005b82811015611b6d57848901518255600182019150602085019450602081019050611b48565b86831015611b8a5784890151611b86601f891682611a93565b8355505b6001600288020188555050505b505050505050565b6000819050919050565b6000611bc4611bbf611bba84611b9f565b6119a5565b6116cd565b9050919050565b611bd481611ba9565b82525050565b600060a0820190508181036000830152611bf481886110fa565b90508181036020830152611c0881876110fa565b9050611c176040830186611bcb565b611c246060830185611133565b8181036080830152611c3681846110fa565b90509695505050505050565b6000602082019050611c576000830184611423565b9291505056fea26469706673582212205bb8f8c408264701e23fdd695a0a5954827529916c24417d163c9fc75dd9135c64736f6c63430008110033",
  "linkReferences": {},
  "deployedLinkReferences": {}
}